:100000000C945D000C9485000C9485000C94850084
:100010000C9485000C9485000C9485000C9485004C
:100020000C9485000C9485000C9485000C9485003C
:100030000C9485000C9485000C9485000C9485002C
:100040000C94DD010C9485000C9485000C948500C3
:100050000C9485000C9485000C9485000C9485000C
:100060000C9427020C948500000000002400270057
:100070002A0000000000250028002B0004040404CE
:100080000404040402020202020203030303030342
:10009000010204081020408001020408102001021F
:1000A00004081020000000080002010000030407FB
:1000B00000000000000000003B0611241FBECFEF2F
:1000C000D8E0DEBFCDBF11E0A0E0B1E0E0E1FDE0AF
:1000D00002C005900D92AA36B107D9F722E0AAE630
:1000E000B1E001C01D92AD33B207E1F710E0CDE5FC
:1000F000D0E004C02197FE010E948006CC35D107D4
:10010000C9F70E9442030C9486060C94000090E00C
:10011000FC01EC55FF4F2491FC01E057FF4F349157
:10012000FC01E458FF4FE491EE23C9F0222339F09B
:10013000233001F1A8F4213019F1223029F1F0E047
:10014000EE0FFF1FEE58FF4FA591B4918FB7F894B3
:10015000EC91611126C030953E233C938FBF0895EA
:100160002730A9F02830C9F0243049F78091800069
:100170008F7D03C0809180008F7780938000DFCFD8
:1001800084B58F7784BDDBCF84B58F7DFBCF809125
:10019000B0008F778093B000D2CF8091B0008F7D78
:1001A000F9CF3E2BDACFCF93DF9390E0FC01E057FD
:1001B000FF4F249184589F4FFC0184918823D1F0F4
:1001C00090E0880F991FFC01E859FF4FA591B49169
:1001D000FC01EE58FF4FC591D49161110EC09FB73D
:1001E000F8948C91E22FE0958E238C932881E22362
:1001F000E8839FBFDF91CF9108958FB7F894EC917A
:10020000E22BEC938FBFF6CF85ED8093BC008091FD
:10021000BC0084FDFCCF1092FC01089520918A015E
:10022000260F3327331F21323105ECF42091FC01D6
:10023000FC0190E080E0243069F082E00895A09114
:100240008A012191AC0146595E4FA40FB52FB11D13
:100250002C930196861798F380918A01680F60931A
:100260008A0180E0089581E008950895E091FE01FB
:100270008091FD01E81730F4F0E0E150FE4F8081FD
:1002800090E008958FEF9FEF08959091FE01809187
:10029000FD012FEF3FEF981748F4E92FF0E0E15010
:1002A000FE4F208130E09F5F9093FE01C9010895C9
:1002B0008091FD019091FE01891B990B0895CF92C9
:1002C000DF92EF92FF920F931F93CF93DF937C0106
:1002D000CB018A012091B201222389F0EB016B014D
:1002E000C40ED51ECC15DD0569F06991D701ED91DD
:1002F000FC910190F081E02DC7010995F3CF642FA7
:100300000E940E01C801DF91CF911F910F91FF90C4
:10031000EF90DF90CF900895CF93DF931F92CDB7EA
:10032000DEB769832091B2012223F9F02091D50133
:10033000203258F021E030E0FC013383228390E04A
:1003400080E00F90DF91CF9108958091B301E82F65
:10035000F0E0EC54FE4F998190838F5F8093B3015E
:100360008093D50181E090E0ECCF61E0CE01019671
:100370000E940E01F7CF90E080E008950F931F9345
:10038000CF93DF93082F162FD42FC8E06D2F661F51
:100390006627661F802F0E948700DD0F61E0812F96
:1003A0000E94870060E0812F0E948700C15071F792
:1003B000DF91CF911F910F9108951F920F920FB669
:1003C0000F9211242F933F938F939F93AF93BF93DB
:1003D00080912B0290912C02A0912D02B0912E02BF
:1003E0003091B10123E0230F2D3758F50196A11D5F
:1003F000B11D2093B10180932B0290932C02A09306
:100400002D02B0932E028091AD019091AE01A0918A
:10041000AF01B091B0010196A11DB11D8093AD0156
:100420009093AE01A093AF01B093B001BF91AF9193
:100430009F918F913F912F910F900FBE0F901F9022
:10044000189526E8230F0296A11DB11DD2CF1F9249
:100450000F920FB60F9211242F933F934F935F93F8
:100460006F937F938F939F93AF93BF93EF93FF937C
:100470008091B900887F803609F44AC0F0F588324F
:1004800009F4A5C018F5803109F499C0B8F488239F
:1004900009F4F5C0883009F492C0FF91EF91BF9143
:1004A000AF919F918F917F916F915F914F913F910C
:1004B0002F910F900FBE0F901F901895883109F45F
:1004C00086C0803251F78093FA0114C0803409F459
:1004D0009BC040F48033B9F38833F9F68093FA0176
:1004E00085ECAEC0803509F483C0883509F494C02A
:1004F000883499F60E940401D0CF883909F48AC063
:1005000038F5883729F050F4883611F0803729F60D
:1005100083E08093FC011092AC0155C0883809F447
:1005200079C0803919F0803809F0B7CF8091AC01DB
:10053000803208F06FC0E091AC0181E08E0F8093B3
:10054000AC018091BB00F0E0E457FE4F80833BC0DC
:10055000803B39F0D0F4803A09F477C0883A09F04A
:100560009CCF84E08093FC0110928B0110928A0151
:10057000F0E0E0E0099580918A0181110FC081E0EF
:1005800080938A0110926A0109C0803C09F4A8CFC7
:10059000883C09F4A5CF883B09F07FCFE0918B011F
:1005A00081E08E0F80938B01F0E0E659FE4F808151
:1005B0008093BB0090918B0180918A0129C080912A
:1005C000F7018093BB0085EC8093BC0066CF9091CF
:1005D000F9018091F801981758F5E091F90181E04F
:1005E0008E0F8093F901F0E0EA52FE4F8081E9CF4F
:1005F000E091F90181E08E0F8093F9018091BB00B9
:10060000F0E0EA52FE4F80839091F9018091F80169
:100610009817C8F285E8D8CFE091F90181E08E0FF4
:100620008093F9018091BB00F0E0EA52FE4F808395
:100630008091FB0181115ECF81E08093F60184EA15
:100640008093BC001092FC0128CF85EC8093BC0005
:100650001092FC018091AC01803230F4E091AC0149
:10066000F0E0E457FE4F10826091AC0170E08CE83E
:1006700091E0F0E0E0E009951092AC010ECF10920D
:10068000FA0138CF789484B5826084BD84B58160E6
:1006900084BD85B5826085BD85B5816085BD80914D
:1006A0006E00816080936E001092810080918100C5
:1006B00082608093810080918100816080938100BD
:1006C000809180008160809380008091B10084607F
:1006D0008093B1008091B00081608093B0008091E0
:1006E0007A00846080937A0080917A00826080939F
:1006F0007A0080917A00816080937A0080917A00FC
:10070000806880937A001092C10010923C0210928F
:100710003B0281E08093B20188E68093D40110927D
:10072000B3011092D50160E08FE192E00E948C014C
:100730009091D501913208F03FC08091FC01811168
:10074000FCCF82E08093FC0181E08093FB018FEF7E
:100750008093FA011092F9019093F801E4EBF1E033
:10076000A6EDB1E080E09813F3C11092F7018091FB
:10077000F701806D8093F7018091F601813009F0D7
:10078000EBC11092F6018091F7018093BB0080913C
:10079000BC0083FDF8CF85EC8093BC008091FC0108
:1007A0008230E1F38091FA018F3F31F08091FA01BC
:1007B000803211F08091FA011092B3011092D501AC
:1007C0001092B2018091FC018111FCCF81E08093F5
:1007D000FC018093FB019FEF9093FA011092F901C5
:1007E00096E09093F8018093F7018091F701806D76
:1007F0008093F7018091F601813009F0AFC110922A
:10080000F6018091F7018093BB008091BC0083FDCD
:10081000F8CF85EC8093BC008091FC018130E1F33E
:100820008091F90197E0873010F49091F901A6EDDD
:10083000B1E0EFEFF1E080E0891392C11092FE0188
:100840008093FD018FE192E00E9445018F77282F70
:1008500030E074E0359527957A95E1F7922F990F5E
:10086000990F122F191B110F180F8FE192E00E94A0
:1008700045019C01E4E035952795EA95E1F72F7055
:100880003327922F990F990FD22FD91BDD0FD80F35
:100890008FE192E00E9445019C01F4E03595279597
:1008A000FA95E1F72F703327922F990F990FC22FE6
:1008B000C91BCC0FC80F8FE192E00E9445018FE168
:1008C00092E00E9445018FE192E00E9445018FE194
:1008D00092E00E9445012AE08C2F622F0E944C0674
:1008E000482F50E050933A0240933902892F90E00C
:1008F00090933802809337028D2F0E944C06482F28
:1009000050E05093360240933502892F90E0909347
:10091000340280933302812F0E944C06282F30E04E
:100920003093320220933102892F90E0909330026D
:1009300080932F0261E08CE00E94D30061E08DE0A3
:100940000E94D30061E089E00E94D30061E08AE068
:100950000E94D30061E08BE00E94D30061E080E060
:100960000E94D30061E081E00E94D30061E082E058
:100970000E94D30061E083E00E94D30061E084E044
:100980000E94D30061E085E00E94D30061E086E030
:100990000E94D30061E087E00E94D30061E088E01C
:1009A0000E94D30061E089E00E94D30061E08FE003
:1009B0000E94D30060E082E10E94D30060E083E106
:1009C0000E94D300A8EE8A2EA3E09A2E0AE010E03F
:1009D000B6E0EB2EF12CC0E0AC2EC0E0BC2E8FB701
:1009E000F89440912B0250912C0260912D0270914D
:1009F0002E028FBF20913B0230913C02289DC00106
:100A0000299D900D389D900D1124092E000CAA0BE4
:100A1000BB0B84179507A607B70708F0A5C0809100
:100A20002F029091300201969093300280932F0212
:100A30008A30910584F0E0913102F0913202B801E0
:100A40000E9458069093300280932F023196F093C3
:100A50003202E0933102809131029091320286306D
:100A6000910584F0E0913302F0913402B7010E94C5
:100A7000580690933202809331023196F0933402FB
:100A8000E093330280913302909134028A309105D1
:100A900084F0E0913502F0913602B8010E945806C8
:100AA00090933402809333023196F0933602E093B0
:100AB000350280913502909136028630910584F09E
:100AC000E0913702F0913802B7010E9458069093E6
:100AD0003602809335023196F0933802E093370264
:100AE00080913702909138028A30910584F0E0912C
:100AF0003902F0913A02B8010E94580690933802E8
:100B0000809337023196F0933A02E0933902809154
:100B1000390290913A02029771F4809137029091D4
:100B20003802049741F410923A021092390210925E
:100B30003802109237022F5F3F4F30933C022093D0
:100B40003B02A114B10409F44ACF0E94000047CF30
:100B500021912D938F5F07CE85EE1ECE85EE5ACE66
:100B60002D9121938F5F68CE62E6C62E61E0D62E6E
:100B7000D0E0C0E060E08BE00E948700F601419188
:100B80006F016DE08CE00E94BE01E0913902F091AE
:100B90003A0283E0EE0FFF1F8A95E1F7EE5EFE4F0B
:100BA000EC0FFD1F40816AE089E00E94BE01E091E8
:100BB0003702F091380293E0EE0FFF1F9A95E1F7AC
:100BC000EE5EFE4FEC0FFD1F408168E087E00E9463
:100BD000BE01E0913502F091360223E0EE0FFF1FD7
:100BE0002A95E1F7EE5EFE4FEC0FFD1F408166E0B7
:100BF00085E00E94BE01E0913302F091340233E0BF
:100C0000EE0FFF1F3A95E1F7EE5EFE4FEC0FFD1F72
:100C1000408164E083E00E94BE01E0913102F091E6
:100C2000320243E0EE0FFF1F4A95E1F7EE5EFE4F02
:100C3000EC0FFD1F408162E081E00E94BE01E09167
:100C40002F02F091300253E0EE0FFF1F5A95E1F7AB
:100C5000EE5EFE4FEC0FFD1F408160E08FE00E94D2
:100C6000BE0161E08BE00E9487002196C830D1056B
:100C700009F080CF66CFEFE1F2E01382128288EEB6
:100C800093E0A0E0B0E084839583A683B78384E0FB
:100C900091E0918380830895991B79E004C0991FA6
:100CA000961708F0961B881F7A95C9F780950895C6
:100CB00097FB072E16F4009407D077FD09D00E9409
:100CC0006C0607FC05D03EF4909581959F4F0895E2
:100CD000709561957F4F0895AA1BBB1B51E107C01A
:100CE000AA1FBB1FA617B70710F0A61BB70B881FBC
:100CF000991F5A95A9F780959095BC01CD0108954B
:100D0000EE0FFF1F0590F491E02D0994F894FFCFAA
:100D1000000000008C015F01BB0135015801450155
:100D20003601FF83016D750183FFFF7F7701017F2E
:100D30007FFFFF3B195D6D6173FFFFBB396D6D0177
:100D400093FFFFCFD7DB0101DFFFFFB131757505E1
:100D50008DFFFF83016D6D099BFFFFF9F91D05E113
:100D6000F9FFFF93016D6D0193FFFFB3216D6D01DD
:0A0D700083FF0102040810204080F8
:00000001FF
