:100000000C9461000C9473000C9473000C947300B6
:100010000C9473000C9473000C9473000C94730094
:100020000C9473000C9473000C9473000C94730084
:100030000C9473000C9473000C9473000C94730074
:100040000C942A010C9473000C9473000C947300AC
:100050000C9473000C9473000C9473000C94730054
:100060000C9474010C94730000000000250028001B
:100070002B0000000000240027002A0000000000E0
:1000800023002600290004040404040404040202DA
:100090000202020203030303030301020408102007
:1000A0004080010204081020010204081020000012
:1000B0000008000201000003040700000000000027
:1000C000000011241FBECFEFD8E0DEBFCDBF21E07E
:1000D000A0E0B1E001C01D92A437B207E1F70E9491
:1000E0008F020C943A030C940000833081F028F4C2
:1000F000813099F08230A9F008958730A9F08830D6
:10010000C9F08430B1F4809180008F7D03C080916C
:1001100080008F7780938000089584B58F7784BDA9
:10012000089584B58F7DFBCF8091B0008F77809349
:10013000B00008958091B0008F7DF9CF1F93CF93C9
:10014000DF93282F30E0F901E255FF4F8491F90148
:10015000E656FF4FD491F901EA57FF4FC491CC23E3
:10016000A9F0162F81110E947500EC2FF0E0EE0F20
:10017000FF1FE859FF4FA591B4918FB7F894EC9108
:10018000111108C0D095DE23DC938FBFDF91CF9192
:100190001F910895DE2BF8CF85ED8093BC008091F0
:1001A000BC0084FDFCCF10924501089520912101EF
:1001B000260F3327331F21323105ECF420914501FE
:1001C000FC0190E080E0243069F082E00895A09185
:1001D00021012191AC014F5F5E4FA40FB52FB11DDE
:1001E0002C930196861798F380912101680F6093F4
:1001F000210180E0089581E0089508958FEF9FEF39
:1002000008958FEF9FEF08958091000190E0919500
:10021000819591090895CF93DF93CB01EA01642F73
:100220000E94D600CE01DF91CF910895CF93DF9346
:100230001F92CDB7DEB7698361E0CE0101960E94BF
:10024000D60081E090E00F90DF91CF91089590E08B
:1002500080E008951F920F920FB60F9211242F93F2
:100260003F938F939F93AF93BF9380917001909131
:100270007101A0917201B091730130916F0123E07F
:10028000230F2D3758F50196A11DB11D20936F0145
:100290008093700190937101A0937201B0937301E8
:1002A00080916B0190916C01A0916D01B0916E01F4
:1002B0000196A11DB11D80936B0190936C01A093D9
:1002C0006D01B0936E01BF91AF919F918F913F915E
:1002D0002F910F900FBE0F901F90189526E8230FB7
:1002E0000296A11DB11DD2CF1F920F920FB60F9291
:1002F00011242F933F934F935F936F937F938F932B
:100300009F93AF93BF93EF93FF938091B900887F42
:10031000803609F44AC0F0F5883209F4A5C018F512
:10032000803109F499C0B8F4882309F4F5C0883005
:1003300009F492C0FF91EF91BF91AF919F918F917E
:100340007F916F915F914F913F912F910F900FBED1
:100350000F901F901895883109F486C0803251F7AC
:100360008093440114C0803409F49BC040F480336E
:10037000B9F38833F9F68093440185ECAEC080353B
:1003800009F483C0883509F494C0883499F60E9432
:10039000CC00D0CF883909F48AC038F5883729F0E5
:1003A00050F4883611F0803729F683E080934501B8
:1003B0001092430155C0883809F479C0803919F08A
:1003C000803809F0B7CF80914301803208F06FC0C8
:1003D000E091430181E08E0F809343018091BB0047
:1003E000F0E0ED5DFE4F80833BC0803B39F0D0F400
:1003F000803A09F477C0883A09F09CCF84E0809372
:1004000045011092220110922101F0E0E0E00995EF
:100410008091210181110FC081E080932101109210
:10042000010109C0803C09F4A8CF883C09F4A5CF9C
:10043000883B09F07FCFE091220181E08E0F80930D
:100440002201F0E0EF5FFE4F80818093BB0090912E
:1004500022018091210129C080916A018093BB0013
:1004600085EC8093BC0066CF909169018091680112
:10047000981758F5E091690181E08E0F809369012A
:10048000F0E0E85BFE4F8081E9CFE091690181E017
:100490008E0F809369018091BB00F0E0E85BFE4F16
:1004A000808390916901809168019817C8F285E86E
:1004B000D8CFE091690181E08E0F8093690180912E
:1004C000BB00F0E0E85BFE4F808380914701811123
:1004D0005ECF81E08093460184EA8093BC00109255
:1004E000450128CF85EC8093BC0010924501809196
:1004F0004301803230F4E0914301F0E0ED5DFE4FC6
:1005000010826091430170E083E291E0F0E0E0E06E
:100510000995109243010ECF1092440138CF789480
:1005200084B5826084BD84B5816084BD85B58260F8
:1005300085BD85B5816085BD80916E0081608093A9
:100540006E00109281008091810082608093810012
:100550008091810081608093810080918000816022
:10056000809380008091B10084608093B10080917D
:10057000B00081608093B00080917A0084608093A5
:100580007A0080917A00826080937A0080917A006C
:10059000816080937A0080917A00806880937A00ED
:1005A0001092C100C0EAD0E0FE0124910CE810E0F6
:1005B000F80184918823C9F090E0880F991FFC010D
:1005C000EE58FF4FA591B491FC01E859FF4F4591BA
:1005D00054913FB7F8949C91822F809598239C93D7
:1005E000FA019081892380833FBFE2EAF0E0249101
:1005F000EEE8F0E08491882399F090E0880F991F4D
:10060000FC01EE58FF4FA591B491FC01E859FF4F52
:10061000859194918FB7F894EC91E22BEC938FBF76
:1006200094EBE92E90E0F92E20E0C22E20E0D22EAD
:10063000F7018491FE01A490F801B490BB2079F0F9
:1006400081110E947500EB2DF0E0EE0FFF1FE458C2
:10065000FF4FA591B4918C91A82261E009F460E06C
:1006600088E00E949E00C114D10411F30E94000092
:08067000DFCF0895F894FFCFDD
:107E0000112484B714BE81FFF0D085E080938100F7
:107E100082E08093C00088E18093C10086E0809377
:107E2000C20080E18093C4008EE0C9D0259A86E02C
:107E300020E33CEF91E0309385002093840096BBD3
:107E4000B09BFECF1D9AA8958150A9F7CC24DD24C4
:107E500088248394B5E0AB2EA1E19A2EF3E0BF2EE7
:107E6000A2D0813461F49FD0082FAFD0023811F036
:107E7000013811F484E001C083E08DD089C08234E0
:107E800011F484E103C0853419F485E0A6D080C0E4
:107E9000853579F488D0E82EFF2485D0082F10E0AE
:107EA000102F00270E291F29000F111F8ED06801E7
:107EB0006FC0863521F484E090D080E0DECF843638
:107EC00009F040C070D06FD0082F6DD080E0C81688
:107ED00080E7D80618F4F601B7BEE895C0E0D1E017
:107EE00062D089930C17E1F7F0E0CF16F0E7DF06D8
:107EF00018F0F601B7BEE89568D007B600FCFDCFD4
:107F0000A601A0E0B1E02C9130E011968C91119780
:107F100090E0982F8827822B932B1296FA010C0160
:107F200087BEE89511244E5F5F4FF1E0A038BF0790
:107F300051F7F601A7BEE89507B600FCFDCF97BE46
:107F4000E89526C08437B1F42ED02DD0F82E2BD052
:107F50003CD0F601EF2C8F010F5F1F4F84911BD097
:107F6000EA94F801C1F70894C11CD11CFA94CF0C13
:107F7000D11C0EC0853739F428D08EE10CD085E9AC
:107F80000AD08FE07ACF813511F488E018D01DD067
:107F900080E101D065CF982F8091C00085FFFCCF94
:107FA0009093C60008958091C00087FFFCCF809118
:107FB000C00084FD01C0A8958091C6000895E0E648
:107FC000F0E098E1908380830895EDDF803219F02E
:107FD00088E0F5DFFFCF84E1DECF1F93182FE3DFCA
:107FE0001150E9F7F2DF1F91089580E0E8DFEE27F6
:047FF000FF270994CA
:027FFE00040479
:0400000300007E007B
:00000001FF
