:100000000C945D000C9485000C9485000C94850084
:100010000C9485000C9485000C9485000C9485004C
:100020000C9485000C9485000C9485000C9485003C
:100030000C9485000C9485000C9485000C9485002C
:100040000C9427020C9485000C9485000C94850078
:100050000C9485000C9485000C9485000C9485000C
:100060000C9485000C94850000000008000201003B
:100070000003040700000000000000000000000072
:10008000250028002B0000000000240027002A0083
:10009000040404040404040402020202020203032E
:1000A0000303030301020408102040800102040836
:1000B0001020010204081020370311241FBECFEFC7
:1000C000D8E0DEBFCDBF11E0A0E0B1E0E6E9F7E0A7
:1000D00002C005900D92A030B107D9F721E0A0E051
:1000E000B1E001C01D92A532B207E1F710E0CDE505
:1000F000D0E004C02197FE010E94BC03CC35D1079B
:10010000C9F70E9471020C94C9030C94000090E09E
:10011000FC01EC55FF4F249180579F4FFC018491C7
:10012000882399F090E0880F991FFC01EA57FF4F50
:10013000A591B491FC01E458FF4F859194918FB73C
:10014000F894EC91E22BEC938FBF089590E0FC01C2
:10015000E859FF4F2491FC01EC55FF4F3491FC010D
:10016000E057FF4FE491EE23C9F0222339F023300A
:1001700001F1A8F4213019F1223029F1F0E0EE0F5D
:10018000FF1FE458FF4FA591B4918FB7F894EC91FD
:10019000611126C030953E233C938FBF08952730D0
:1001A000A9F02830C9F0243049F7809180008F7D74
:1001B00003C0809180008F7780938000DFCF84B56B
:1001C0008F7784BDDBCF84B58F7DFBCF8091B0006E
:1001D0008F778093B000D2CF8091B0008F7DF9CF20
:1001E0003E2BDACFCF93DF93EC01809113019091F6
:1001F0001401029749F4C130D10509F43BC06CF5F4
:1002000060E0209709F437C08091130190911401A8
:10021000049749F4C130D10509F45CC00CF037C033
:10022000209709F442C08091130190911401059721
:1002300009F0E5C0CA30D10508F0E1C0FE01ED5D6E
:10024000FE4F0C94BC0382018E019F01B501D001C9
:10025000D201D901E501F601FD01C230D105A9F0B5
:1002600060E0C330D10581F6809117010E94A6009D
:1002700060E006C061E0809117010E94A60061E085
:10028000809119010E94A600BFCF61E0EDCFC2307E
:10029000D10539F1C330D10509F0C5CF61E08091B6
:1002A00017010E94A60060E022C061E08091170162
:1002B0000E94A60060E0809119010E94A60061E002
:1002C00080911B010E94A60060E080911D010E94A8
:1002D000A600A9CF60E0809117010E94A60061E00E
:1002E000EACF60E0809117010E94A60061E0809152
:1002F00019010E94A60060E080911B010E94A600E7
:1003000061E0E3CF60E0809117010E94A60061E008
:10031000809119010E94A60061E00BC060E080910D
:1003200017010E94A60061E0809119010E94A600B9
:1003300060E080911B010E94A60060E010C060E0B8
:10034000809117010E94A60061E0809119010E942E
:10035000A60060E080911B010E94A60061E08091F0
:100360001D010E94A60061E015C060E080911701A8
:100370000E94A60061E0809119010E94A60060E041
:1003800080911B010E94A60061E080911D010E94E6
:10039000A60060E080911F01DF91CF910C94A60030
:1003A00061E0E4CF61E0809117010E94A60060E067
:1003B000E2CF61E0809117010E94A60060E0809189
:1003C00019010E94A60061E0DBCF61E08091170176
:1003D0000E94A60060E0809119010E94A60061E0E1
:1003E00080911B010E94A60060E0CFCF61E0809168
:1003F00017010E94A60060E08BCF60E0F8CFDF918C
:10040000CF9108953FB7F89480910501909106012E
:10041000A0910701B091080126B5A89B05C02F3F08
:1004200019F00196A11DB11D3FBFBA2FA92F982F1A
:100430008827BC01CD01620F711D811D911D42E015
:10044000660F771F881F991F4A95D1F708951F924D
:100450000F920FB60F9211242F933F938F939F9378
:10046000AF93BF938091010190910201A09103018C
:10047000B09104013091000123E0230F2D3758F58E
:100480000196A11DB11D209300018093010190935D
:100490000201A0930301B0930401809105019091A2
:1004A0000601A0910701B09108010196A11DB11D9F
:1004B0008093050190930601A0930701B093080172
:1004C000BF91AF919F918F913F912F910F900FBE50
:1004D0000F901F90189526E8230F0296A11DB11DBD
:1004E000D2CF789484B5826084BD84B5816084BDA8
:1004F00085B5826085BD85B5816085BD80916E00C2
:10050000816080936E0010928100809181008260F2
:10051000809381008091810081608093810080912F
:1005200080008160809380008091B100846080931E
:10053000B1008091B00081608093B00080917A001A
:10054000846080937A0080917A00826080937A0040
:1005500080917A00816080937A0080917A0080682F
:1005600080937A001092C10010E4412C97E8592E34
:1005700093E9692E93E0792EC0E0D0E010937C00DF
:1005800080917A00806480937A0080917A0086FD61
:10059000FCCF80917800A0917900BA2FA82F23E694
:1005A00030E00E94C2032FEF33E040E050E00E94B1
:1005B0006C0369017A018FEFC81AD80AE80AF80AB1
:1005C0008091090190910A01092E000CAA0BBB0B26
:1005D0008C159D05AE05BF05F1F0D0920A01C092C1
:1005E00009012091110130911201032E000C440BDE
:1005F000550BC301B2010E946C03CA01B901A701E6
:1006000096010E946C0320930D0130930E014093DC
:100610000F01509310010E9402024B015C0180E81F
:10062000C82E86E9D82E88E9E82EF12C0E94020215
:10063000681979098A099B09683E7340810591050B
:10064000A8F321E0C21AD108E108F10888EE880E6B
:1006500083E0981EA11CB11CC114D104E104F10473
:1006600029F7209709F48ACF0E94000087CFCF9303
:10067000DF93CBE0D1E01B861A86198218821E8A8E
:100680001F8A188E198E84E690E09F838E8388E0FF
:1006900090E09D878C8789E090E09F878E878AE035
:1006A00090E0998B888B8BE090E09B8B8A8B88E025
:1006B0000E9487008E850E94870088890E9487009B
:1006C0008A890E9487001D8A1C8A84E090E09987AD
:1006D0008887DF91CF910895052E97FB1EF4009433
:1006E0000E94830357FD07D00E948B0307FC03D0B1
:1006F0004EF40C94830350954095309521953F4FCF
:100700004F4F5F4F089590958095709561957F4FFD
:100710008F4F9F4F0895A1E21A2EAA1BBB1BFD010C
:100720000DC0AA1FBB1FEE1FFF1FA217B307E407D0
:10073000F50720F0A21BB30BE40BF50B661F771F28
:10074000881F991F1A9469F7609570958095909508
:100750009B01AC01BD01CF010895A29FB001B39FE1
:10076000C001A39F700D811D1124911DB29F700DBA
:10077000811D1124911D0895EE0FFF1F0590F49126
:10078000E02D09940E94AD03B7FF0895821B930BDF
:060790000895F894FFCF6C
:107E0000112484B714BE81FFF0D085E080938100F7
:107E100082E08093C00088E18093C10086E0809377
:107E2000C20080E18093C4008EE0C9D0259A86E02C
:107E300020E33CEF91E0309385002093840096BBD3
:107E4000B09BFECF1D9AA8958150A9F7CC24DD24C4
:107E500088248394B5E0AB2EA1E19A2EF3E0BF2EE7
:107E6000A2D0813461F49FD0082FAFD0023811F036
:107E7000013811F484E001C083E08DD089C08234E0
:107E800011F484E103C0853419F485E0A6D080C0E4
:107E9000853579F488D0E82EFF2485D0082F10E0AE
:107EA000102F00270E291F29000F111F8ED06801E7
:107EB0006FC0863521F484E090D080E0DECF843638
:107EC00009F040C070D06FD0082F6DD080E0C81688
:107ED00080E7D80618F4F601B7BEE895C0E0D1E017
:107EE00062D089930C17E1F7F0E0CF16F0E7DF06D8
:107EF00018F0F601B7BEE89568D007B600FCFDCFD4
:107F0000A601A0E0B1E02C9130E011968C91119780
:107F100090E0982F8827822B932B1296FA010C0160
:107F200087BEE89511244E5F5F4FF1E0A038BF0790
:107F300051F7F601A7BEE89507B600FCFDCF97BE46
:107F4000E89526C08437B1F42ED02DD0F82E2BD052
:107F50003CD0F601EF2C8F010F5F1F4F84911BD097
:107F6000EA94F801C1F70894C11CD11CFA94CF0C13
:107F7000D11C0EC0853739F428D08EE10CD085E9AC
:107F80000AD08FE07ACF813511F488E018D01DD067
:107F900080E101D065CF982F8091C00085FFFCCF94
:107FA0009093C60008958091C00087FFFCCF809118
:107FB000C00084FD01C0A8958091C6000895E0E648
:107FC000F0E098E1908380830895EDDF803219F02E
:107FD00088E0F5DFFFCF84E1DECF1F93182FE3DFCA
:107FE0001150E9F7F2DF1F91089580E0E8DFEE27F6
:047FF000FF270994CA
:027FFE00040479
:0400000300007E007B
:00000001FF
